S0120000446174614C6F676765722E7372656338
S11300000C94B1000C94CE000C94CE000C94CE0051
S11300100C94CE000C94CE000C94CE000C94CE0024
S11300200C94CE000C94CE000C94CE000C94CE0014
S11300300C94CE000C94CE000C94CE000C94CE0004
S11300400C94CE000C94CE000C94CE000C94CE00F4
S11300500C94CE000C94CE000C94CE000C94CE00E4
S11300600C94CE000C94CE0000407A10F35A00A0F9
S1130070724E18090010A5D4E80000E8764817006D
S113008000E40B54020000CA9A3B000000E1F505AD
S1130090000080969800000040420F000000A086F7
S11300A001000000102700000000E8030000000029
S11300B06400000000000A000000000001000000CD
S11300C000002C76D888DC674F0823DFC1DFAE59E7
S11300D0E1B1B796E5E3E453C63AE651997696E87A
S11300E0E6C28426EB898C9B62ED407C6FFCEFBCFE
S11300F09C9F40F2BAA56FA5F490055A2AF75C9329
S11301006B6CF9676DC11BFCE0E40D47FEF520E65E
S1130110B500D0ED902E0300943577050080841E41
S1130120080000204E0A000000C80C333333330F9C
S1130130986E12831141EF8D2114893BE65516CF39
S1130140FEE6DB18D1844B381BF77C1D901DA4BB45
S1130150E424203284725E228100C9F124ECA1E5FA
S11301603D2711241FBECFEFD4E0DEBFCDBF11E089
S1130170A0E0B1E0E4EDFAE202C005900D92A030F7
S1130180B107D9F721E0A0E0B1E001C01D92A13090
S1130190B207E1F70E94D80F0C9468150C94000084
S11301A00F931F93CF93DF93CDB7DEB7C156D10919
S11301B00FB6F894DEBF0FBECDBF88E290E028E210
S11301C030E0F90120812E7FFC01208387E290E05A
S11301D027E230E0F90120812160FC01208380E0E6
S11301E090E0A0EFB3E489839A83AB83BC838E0150
S11301F00A5B1F4F2BEA3AEA4AEA5EE369817A8195
S11302008B819C810E947212DC01CB01F8018083F6
S11302109183A283B3838E01065B1F4F20E030E0FD
S113022040E85EE369817A818B819C810E9472122D
S1130230DC01CB01F80180839183A283B383CE01D7
S11302408A5B9F4F20E030E040E85FE3FC0160817F
S11302507181828193810E940E1188233CF4CE0126
S1130260825B9F4F21E0FC0120832CC1CE01865B81
S11302709F4F20E03FEF4FE757E4FC01608171811D
S1130280828193810E946D1218160CF0CDC020E07B
S113029030E04AE754E469817A818B819C810E9431
S11302A01311DC01CB019E01215B3F4FF9018083D7
S11302B09183A283B3838E010D5A1F4FCE01815BBC
S11302C09F4F20E030E04AE753E4FC0160817181F4
S11302D0828193810E947212DC01CB01F801808338
S11302E09183A283B383CE018D5A9F4F20E030E0E7
S11302F040E85FE3FC0160817181828193810E9407
S11303000E1188234CF4CE01895A9F4F21E030E02E
S1130310FC01318320836DC0CE018D5A9F4F20E0B4
S11303203FEF4FE757E4FC01608171818281938143
S11303300E946D1218160CF04AC0CE01815B9F4FCB
S113034020E030E040E251E4FC016081718182816F
S113035093810E947212DC01CB018E01095A1F4F56
S1130360BC01CD010E948C11DC01CB01F801918309
S1130370808324C0CE01875A9F4F29E130E0FC01DD
S113038031832083CE01875A9F4FFC018081918164
S11303900197F1F79E01275A3F4FF901918380831A
S11303A0CE01895A9F4F9E01295A3F4FF90120815E
S11303B0318121503109FC0131832083CE01895AD6
S11303C09F4FFC0180819181892BA1F67BC08E0116
S11303D0095A1F4FCE018D5A9F4FFC0160817181D4
S11303E0828193810E948C11DC01CB01F8019183FD
S11303F08083CE01855A9F4F9E01295A3F4FF901B0
S113040020813181FC0131832083CE01855A9F4FA5
S1130410FC01808191810197F1F79E01255A3F4F9C
S1130420F901918380834EC0CE018A5B9F4F20E007
S113043030E04FE753E4FC01608171818281938154
S11304400E946D1218166CF58E01035A1F4FCE01CF
S1130450865B9F4FFC0160817181828193810E9440
S11304608C11DC01CB01F80191838083CE01815A88
S11304709F4F9E01235A3F4FF90120813181FC0196
S113048031832083CE01815A9F4FFC018081918169
S11304900197F1F79E01215A3F4FF901918380831F
S11304A028C08E01025B1F4FCE018A5B9F4FFC0167
S11304B060817181828193810E948C11DC01CB0166
S11304C0F8018083CE018F599F4F9E01225B3F4FDD
S11304D0F9012081FC012083CE018F599F4FFC013B
S11304E08081282F2A95F1F7CE018F599F4FFC0167
S11304F0208387E290E027E230E0F90120812E7F1B
S1130500FC01208380E090E0A0E7B2E48E839F8327
S1130510A887B9872BEA3AEA4AEA5EE36E817F81CB
S1130520888599850E947212DC01CB018AA79BA75A
S1130530ACA7BDA720E030E040E85EE36E817F8198
S1130540888599850E947212DC01CB018EA79FA732
S1130550A8ABB9AB20E030E040E85FE36AA57BA537
S11305608CA59DA50E940E1188231CF481E08AAB02
S1130570D0C020E03FEF4FE757E46EA57FA588A9E0
S113058099A90E946D1218160CF085C020E030E085
S11305904AE754E46E817F81888599850E9413110E
S11305A0DC01CB018BAB9CABADABBEAB20E030E050
S11305B04AE753E46BA97CA98DA99EA90E947212F3
S11305C0DC01CB018FAB98AFA9AFBAAF20E030E02C
S11305D040E85FE36FA978AD89AD9AAD0E940E1132
S11305E088232CF481E090E09CAF8BAF3FC020E0E7
S11305F03FEF4FE757E46FA978AD89AD9AAD0E94FC
S11306006D1218164CF520E030E040E251E46BA97D
S11306107CA98DA99EA90E947212DC01CB01BC01A8
S1130620CD010E948C11DC01CB019CAF8BAF0FC0BC
S113063089E190E09EAF8DAF8DAD9EAD0197F1F74E
S11306409EAF8DAF8BAD9CAD01979CAF8BAF8BAD47
S11306509CAD892B69F75DC06FA978AD89AD9AAD62
S11306600E948C11DC01CB019CAF8BAF2BAD3CAD58
S1130670CE01CF96FC0131832083CE01CF96FC01BD
S1130680808191810197F1F79E01215C3F4FF9012F
S1130690918380833EC020E030E04FE753E46AA5B5
S11306A07BA58CA59DA50E946D1218164CF58E0194
S11306B00F5B1F4F6EA57FA588A999A90E948C1175
S11306C0DC01CB01F80191838083CE018D5B9F4FC8
S11306D09E012F5B3F4FF90120813181FC01318361
S11306E02083CE018D5B9F4FFC0180819181019716
S11306F0F1F79E012D5B3F4FF901918380831CC06C
S11307006AA57BA58CA59DA50E948C11DC01CB015B
S11307108AABCE018B5B9F4F2AA9FC012083CE01BB
S11307208B5B9F4FFC018081282F2A95F1F7CE0126
S11307308B5B9F4FFC01208386E290E0FC0180816B
S113074081708D8380E090E0A2EDB3E48A879B877B
S1130750AC87BD872BEA3AEA4AEA5EE36A857B8581
S11307608C859D850E947212DC01CB018E879F8748
S1130770A88BB98B20E030E040E85EE36A857B8596
S11307808C859D850E947212DC01CB018A8B9B8B28
S1130790AC8BBD8B20E030E040E85FE36E857F8565
S11307A0888999890E940E1188231CF481E08E8B1C
S11307B0B2C020E03FEF4FE757E46A897B898C8918
S11307C09D890E946D1218160CF07BC020E030E069
S11307D04AE754E46A857B858C859D850E941311C4
S11307E0DC01CB018F8B988FA98FBA8F20E030E08A
S11307F04AE753E46F89788D898D9A8D0E9472122D
S1130800DC01CB018B8F9C8FAD8FBE8F20E030E05D
S113081040E85FE36B8D7C8D8D8D9E8D0E940E1163
S113082088232CF481E090E098A38F8F3FC020E0D0
S11308303FEF4FE757E46B8D7C8D8D8D9E8D0E942D
S11308406D1218164CF520E030E040E251E46F8957
S1130850788D898D9A8D0E947212DC01CB01BC01C6
S1130860CD010E948C11DC01CB0198A38F8F0FC0A6
S113087089E190E09AA389A389A19AA10197F1F74C
S11308809AA389A38F8D98A1019798A38F8F8F8D99
S113089098A1892B69F73FC06B8D7C8D8D8D9E8DC2
S11308A00E948C11DC01CB0198A38F8F8F8D98A1AE
S11308B09CA38BA38BA19CA10197F1F79CA38BA371
S11308C02AC020E030E04FE753E46E857F858889B5
S11308D099890E946D121816ACF46A897B898C89F7
S11308E09D890E948C11DC01CB019EA38DA38DA157
S11308F09EA198A78FA38FA198A50197F1F798A718
S11309008FA30FC06E857F85888999890E948C1179
S1130910DC01CB018E8B8E8989A789A58A95F1F795
S113092089A78D81CF59DF4F0FB6F894DEBF0FBE74
S1130930CDBFDF91CF911F910F910895CF93DF9396
S1130940CDB7DEB7C154D1090FB6F894DEBF0FBEE0
S1130950CDBF9E012F5B3F4FF901808388E290E079
S113096028E230E0F90120812E7FFC01208387E218
S113097090E027E230E0F90120812160FC0120832E
S113098080E090E0A0E8BFE38D839E83AF83B887C7
S11309902BEA3AEA4AEA5EE36D817E818F8198858B
S11309A00E947212DC01CB0189879A87AB87BC87CE
S11309B020E030E040E85EE36D817E818F819885A0
S11309C00E947212DC01CB018D879E87AF87B88BA2
S11309D020E030E040E85FE369857A858B859C857B
S11309E00E940E1188231CF481E0898BB2C020E0A0
S11309F03FEF4FE757E46D857E858F8598890E9488
S1130A006D1218160CF07BC020E030E04AE754E485
S1130A106D817E818F8198850E941311DC01CB0149
S1130A208A8B9B8BAC8BBD8B20E030E04AE753E490
S1130A306A897B898C899D890E947212DC01CB01B1
S1130A408E8B9F8BA88FB98F20E030E040E85FE366
S1130A506E897F89888D998D0E940E1188232CF4CC
S1130A6081E090E09B8F8A8F3FC020E03FEF4FE70B
S1130A7057E46E897F89888D998D0E946D121816AE
S1130A804CF520E030E040E251E46A897B898C89AE
S1130A909D890E947212DC01CB01BC01CD010E9430
S1130AA08C11DC01CB019B8F8A8F0FC089E190E010
S1130AB09D8F8C8F8C8D9D8D0197F1F79D8F8C8FE1
S1130AC08A8D9B8D01979B8F8A8F8A8D9B8D892B15
S1130AD069F73FC06E897F89888D998D0E948C113A
S1130AE0DC01CB019B8F8A8F8A8D9B8D9F8F8E8F8C
S1130AF08E8D9F8D0197F1F79F8F8E8F2AC020E0F6
S1130B0030E04FE753E469857A858B859C850E94A4
S1130B106D121816ACF46D857E858F8598890E94B8
S1130B208C11DC01CB0199A388A388A199A19BA373
S1130B308AA38AA19BA10197F1F79BA38AA30FC063
S1130B4069857A858B859C850E948C11DC01CB019B
S1130B50898B89898CA38CA18A95F1F78CA3CE010A
S1130B608F5B9F4FFC018081882349F087E290E0EE
S1130B7027E230E0F90120812E7FFC01208380E010
S1130B8090E0A0E7B2E489839A83AB83BC832BEA29
S1130B903AEA4AEA5EE369817A818B819C810E9408
S1130BA07212DC01CB018DA39EA3AFA3B8A720E0F2
S1130BB030E040E85EE369817A818B819C810E9408
S1130BC07212DC01CB0189A79AA7ABA7BCA720E0CE
S1130BD030E040E85FE36DA17EA18FA198A50E945B
S1130BE00E1188231CF481E08DA7B2C020E03FEFF2
S1130BF04FE757E469A57AA58BA59CA50E946D12C1
S1130C0018160CF07BC020E030E04AE754E4698118
S1130C107A818B819C810E941311DC01CB018EA708
S1130C209FA7A8ABB9AB20E030E04AE753E46EA538
S1130C307FA588A999A90E947212DC01CB018AAB15
S1130C409BABACABBDAB20E030E040E85FE36AA90E
S1130C507BA98CA99DA90E940E1188232CF481E004
S1130C6090E09FAB8EAB3FC020E03FEF4FE757E4EF
S1130C706AA97BA98CA99DA90E946D1218164CF52E
S1130C8020E030E040E251E46EA57FA588A999A94F
S1130C900E947212DC01CB01BC01CD010E948C11B7
S1130CA0DC01CB019FAB8EAB0FC089E190E099AF23
S1130CB088AF88AD99AD0197F1F799AF88AF8EA948
S1130CC09FA901979FAB8EAB8EA99FA9892B69F72A
S1130CD03FC06AA97BA98CA99DA90E948C11DC0143
S1130CE0CB019FAB8EAB8EA99FA99BAF8AAF8AAD78
S1130CF09BAD0197F1F79BAF8AAF2AC020E030E0AB
S1130D004FE753E46DA17EA18FA198A50E946D12B7
S1130D101816ACF469A57AA58BA59CA50E948C1124
S1130D20DC01CB019DAF8CAF8CAD9DAD9FAF8EAF81
S1130D308EAD9FAD0197F1F79FAF8EAF1CC06DA133
S1130D407EA18FA198A50E948C11DC01CB018DA7F7
S1130D502DA5CE01805C9F4FFC012083CE01805CD9
S1130D609F4FFC018081282F2A95F1F7CE01805CEA
S1130D709F4FFC01208387E290E027E230E0F901F5
S1130D8020812E7FFC0120830000CF5BDF4F0FB654
S1130D90F894DEBF0FBECDBFDF91CF9108950F93BE
S1130DA01F93CF93DF93CDB7DEB7C156D1090FB6EA
S1130DB0F894DEBF0FBECDBF198288E290E028E22E
S1130DC030E0F90120812E7FFC01208387E290E04E
S1130DD027E230E0F90120812160FC01208380E0DA
S1130DE090E0A0E8BFE38E839F83A887B9872BEAAE
S1130DF03AEA4AEA5EE36E817F81888599850E949A
S1130E007212DC01CB018AA79BA7ACA7BDA720E087
S1130E1030E040E85EE36E817F81888599850E9499
S1130E207212DC01CB018EA79FA7A8ABB9AB20E05F
S1130E3030E040E85FE36AA57BA58CA59DA50E94F0
S1130E400E1188231CF481E08AABD0C020E03FEF70
S1130E504FE757E46EA57FA588A999A90E946D1252
S1130E6018160CF085C020E030E04AE754E46E81A7
S1130E707F81888599850E941311DC01CB018BAB9E
S1130E809CABADABBEAB20E030E04AE753E46BA9CA
S1130E907CA98DA99EA90E947212DC01CB018FABA3
S1130EA098AFA9AFBAAF20E030E040E85FE36FA9A4
S1130EB078AD89AD9AAD0E940E1188232CF481E09F
S1130EC090E09CAF8BAF3FC020E03FEF4FE757E48B
S1130ED06FA978AD89AD9AAD0E946D1218164CF5C4
S1130EE020E030E040E251E46BA97CA98DA99EA9E1
S1130EF00E947212DC01CB01BC01CD010E948C1155
S1130F00DC01CB019CAF8BAF0FC089E190E09EAFB9
S1130F108DAF8DAD9EAD0197F1F79EAF8DAF8BADCB
S1130F209CAD01979CAF8BAF8BAD9CAD892B69F7C2
S1130F305DC06FA978AD89AD9AAD0E948C11DC01BA
S1130F40CB019CAF8BAF2BAD3CADCE01CF96FC015A
S1130F5031832083CE01CF96FC018081918101975A
S1130F60F1F79E01215C3F4FF901918380833EC0DC
S1130F7020E030E04FE753E46AA57BA58CA59DA54E
S1130F800E946D1218164CF58E010F5B1F4F6EA553
S1130F907FA588A999A90E948C11DC01CB01F801D5
S1130FA091838083CE018D5B9F4F9E012F5B3F4FCA
S1130FB0F90120813181FC0131832083CE018D5BD5
S1130FC09F4FFC01808191810197F1F79E012D5B78
S1130FD03F4FF901918380831CC06AA57BA58CA532
S1130FE09DA50E948C11DC01CB018AABCE018B5BE9
S1130FF09F4F2AA9FC012083CE018B5B9F4FFC01EC
S11310008081282F2A95F1F7CE018B5B9F4FFC013D
S1131010208387E290E027E230E0F90120812E7FEF
S1131020FC01208380E090E0A0E6B1E48A879B87FE
S1131030AC87BD872BEA3AEA4AEA5EE36A857B8598
S11310408C859D850E947212DC01CB018E879F875F
S1131050A88BB98B20E030E040E85EE36A857B85AD
S11310608C859D850E947212DC01CB018A8B9B8B3F
S1131070AC8BBD8B20E030E040E85FE36E857F857C
S1131080888999890E940E1188231CF481E08E8B33
S1131090B2C020E03FEF4FE757E46A897B898C892F
S11310A09D890E946D1218160CF07BC020E030E080
S11310B04AE754E46A857B858C859D850E941311DB
S11310C0DC01CB018F8B988FA98FBA8F20E030E0A1
S11310D04AE753E46F89788D898D9A8D0E94721244
S11310E0DC01CB018B8F9C8FAD8FBE8F20E030E075
S11310F040E85FE36B8D7C8D8D8D9E8D0E940E117B
S113110088232CF481E090E098A38F8F3FC020E0E7
S11311103FEF4FE757E46B8D7C8D8D8D9E8D0E9444
S11311206D1218164CF520E030E040E251E46F896E
S1131130788D898D9A8D0E947212DC01CB01BC01DD
S1131140CD010E948C11DC01CB0198A38F8F0FC0BD
S113115089E190E09AA389A389A19AA10197F1F763
S11311609AA389A38F8D98A1019798A38F8F8F8DB0
S113117098A1892B69F73FC06B8D7C8D8D8D9E8DD9
S11311800E948C11DC01CB0198A38F8F8F8D98A1C5
S11311909CA38BA38BA19CA10197F1F79CA38BA388
S11311A02AC020E030E04FE753E46E857F858889CC
S11311B099890E946D121816ACF46A897B898C890E
S11311C09D890E948C11DC01CB019EA38DA38DA16E
S11311D09EA198A78FA38FA198A50197F1F798A72F
S11311E08FA30FC06E857F85888999890E948C1191
S11311F0DC01CB018E8B8E8989A789A58A95F1F7AD
S113120089A786E290E0FC018081882F90E08170BC
S11312109927892B11F081E0898380E090E0A4E391
S1131220B2E48A839B83AC83BD838E010A5B1F4F28
S11312302BEA3AEA4AEA5EE36A817B818C819D81EA
S11312400E947212DC01CB01F80180839183A28396
S1131250B3838E01065B1F4F20E030E040E85EE37D
S11312606A817B818C819D810E947212DC01CB0199
S1131270F80180839183A283B383CE018A5B9F4F5D
S113128020E030E040E85FE3FC016081718182810D
S113129093810E940E1188233CF4CE01825B9F4F00
S11312A021E0FC0120832CC1CE01865B9F4F20E00E
S11312B03FEF4FE757E4FC016081718182819381A4
S11312C00E946D1218160CF0CDC020E030E04AE701
S11312D054E46A817B818C819D810E941311DC011D
S11312E0CB019E01215B3F4FF90180839183A2834F
S11312F0B3838E010D5A1F4FCE01815B9F4F20E0B7
S113130030E04AE753E4FC0160817181828193817A
S11313100E947212DC01CB01F80180839183A283C5
S1131320B383CE018D5A9F4F20E030E040E85FE365
S1131330FC0160817181828193810E940E11882356
S11313404CF4CE01895A9F4F21E030E0FC013183F7
S113135020836DC0CE018D5A9F4F20E03FEF4FE7B1
S113136057E4FC0160817181828193810E946D1236
S113137018160CF04AC0CE01815B9F4F20E030E08C
S113138040E251E4FC0160817181828193810E9479
S11313907212DC01CB018E01095A1F4FBC01CD0131
S11313A00E948C11DC01CB01F8019183808324C05D
S11313B0CE01875A9F4F29E130E0FC01318320831D
S11313C0CE01875A9F4FFC01808191810197F1F7EB
S11313D09E01275A3F4FF90191838083CE01895A98
S11313E09F4F9E01295A3F4FF9012081318121509D
S11313F03109FC0131832083CE01895A9F4FFC01BE
S113140080819181892BA1F67BC08E01095A1F4FDF
S1131410CE018D5A9F4FFC0160817181828193813D
S11314200E948C11DC01CB01F80191838083CE01F1
S1131430855A9F4F9E01295A3F4FF90120813181DE
S1131440FC0131832083CE01855A9F4FFC018081AA
S113145091810197F1F79E01255A3F4FF90191833C
S113146080834EC0CE018A5B9F4F20E030E04FE77F
S113147053E4FC0160817181828193810E946D1229
S113148018166CF58E01035A1F4FCE01865B9F4FD1
S1131490FC0160817181828193810E948C11DC0145
S11314A0CB01F80191838083CE01815A9F4F9E0125
S11314B0235A3F4FF90120813181FC01318320837C
S11314C0CE01815A9F4FFC01808191810197F1F7F0
S11314D09E01215A3F4FF9019183808328C08E01D8
S11314E0025B1F4FCE018A5B9F4FFC0160817181BB
S11314F0828193810E948C11DC01CB01F8018083ED
S1131500CE018F599F4F9E01225B3F4FF9012081ED
S1131510FC012083CE018F599F4FFC018081282F2D
S11315202A95F1F7CE018F599F4FFC0120838981C1
S1131530CF59DF4F0FB6F894DEBF0FBECDBFDF919A
S1131540CF911F910F910895CF93DF9300D0CDB722
S1131550DEB78A8388E0898307C08A8181700E940C
S11315609E048A8186958A8389819FEF980F998347
S1131570882399F700000F900F90DF91CF91089581
S1131580CF93DF9300D0CDB7DEB788E089831A828A
S113159010C08A8186958A830E94CF06882F90E0A6
S11315A09695982F882797958795982F8A81892BC8
S11315B08A8389819FEF980F9983882351F78A81C1
S11315C00F900F90DF91CF910895CF93DF9300D0C8
S11315D000D000D0CDB7DEB719821A821B821C82DC
S11315E0F8940E94D0008CEC0E94A40A84E40E9427
S11315F0A40A00000E94CF068823E1F30E94D000D1
S11316008CEC0E94A40A8EEB0E94A40A0E94C00AD9
S11316108D830E94C00A8E8378948E81882F90E0F7
S1131620382F22278D81882F90E0820F931F092E57
S1131630000CAA0BBB0BBC01CD010E94BD11DC0147
S1131640CB0120E030E040E85DE3BC01CD010E9425
S11316507212DC01CB0189839A83AB83BC838981B9
S11316609A81AB81BC81BC01CD0126960FB6F8945A
S1131670DEBF0FBECDBFDF91CF910895CF93DF932F
S11316801F92CDB7DEB7898360E089810E945C0B2D
S113169000000F90DF91CF910895CF93DF931F92B5
S11316A0CDB7DEB7898361E089810E945C0B0000BD
S11316B00F90DF91CF910895CF93DF9300D0CDB7F2
S11316C0DEB789836A838A81882351F08BE290E0B4
S11316D02BE230E0F90120812260FC01208309C063
S11316E08BE290E02BE230E0F90120812D7FFC01B8
S11316F020838BE290E02BE230E0F90120812E7F01
S1131700FC012083898182958F700E94900B8981CE
S11317100E94900B00000F900F90DF91CF910895DD
S1131720CF93DF93CDB7DEB72F970FB6F894DEBF14
S11317300FBECDBF8F878BE290E02BE230E0F90142
S11317402081422F4F702F85222F30E02295329531
S1131750307F3227207F3227242BFC0120838BE229
S113176090E02BE230E0F9012081277FFC01208307
S11317708BE290E02BE230E0F90120812860FC014B
S113178020838BE290E02BE230E0F9012081277F77
S1131790FC0120838AE999E9A9E9BEE389839A8354
S11317A0AB83BC8320E030E04AE753E469817A816B
S11317B08B819C810E947212DC01CB018D839E83FC
S11317C0AF83B88720E030E040E85FE36D817E813D
S11317D08F8198850E940E1188232CF481E090E07B
S11317E09A8789873FC020E03FEF4FE757E46D8138
S11317F07E818F8198850E946D1218164CF520E029
S113180030E040E251E469817A818B819C810E94BD
S11318107212DC01CB01BC01CD010E948C11DC01F0
S1131820CB019A8789870FC089E190E09C878B87D9
S11318308B859C850197F1F79C878B8789859A8591
S113184001979A87898789859A85892B69F714C0B6
S11318506D817E818F8198850E948C11DC01CB0182
S11318609A87898789859A859E878D878D859E85A8
S11318700197F1F79E878D8700002F960FB6F89495
S1131880DEBF0FBECDBFDF91CF9108950F931F939D
S1131890CF93DF93CDB7DEB7C654D1090FB6F89412
S11318A0DEBF0FBECDBF8AE290E02AE230E0F9014C
S11318B020812B6FFC01208380E090E0A0E7B1E45D
S11318C089839A83AB83BC8320E030E04AE753E406
S11318D069817A818B819C810E947212DC01CB0127
S11318E09E01235C3F4FF90180839183A283B383DC
S11318F020E030E040E85FE3CE01CD96FC0160815A
S11319007181828193810E940E1188234CF4CE014F
S11319108F5B9F4F21E030E0FC013183208367C05F
S113192020E03FEF4FE757E4CE01CD96FC01608104
S11319307181828193810E946D1218160CF046C049
S113194020E030E040E251E469817A818B819C811E
S11319500E947212DC01CB018E010F5B1F4FBC0190
S1131960CD010E948C11DC01CB01F80191838083AD
S113197024C0CE018D5B9F4F29E130E0FC0131830F
S11319802083CE018D5B9F4FFC0180819181019763
S1131990F1F79E012D5B3F4FF90191838083CE01C6
S11319A08F5B9F4F9E012F5B3F4FF9012081318157
S11319B021503109FC0131832083CE018F5B9F4F7D
S11319C0FC0180819181892BA1F62BC08E010F5BD4
S11319D01F4FCE01CD96FC0160817181828193817C
S11319E00E948C11DC01CB01F80191838083CE012C
S11319F08B5B9F4F9E012F5B3F4FF901208131810B
S1131A00FC0131832083CE018B5B9F4FFC018081DD
S1131A1091810197F1F79E012B5B3F4FF90191836F
S1131A2080838BE290E02BE230E0F9012081247F77
S1131A30FC01208383E393E3A3E8B0E48D839E83D6
S1131A40AF83B88720E030E04AE753E46D817E81BC
S1131A508F8198850E947212DC01CB018BAB9CAB09
S1131A60ADABBEAB20E030E040E85FE36BA97CA9FE
S1131A708DA99EA90E940E1188232CF481E090E088
S1131A8098AF8FAB3FC020E03FEF4FE757E46BA91F
S1131A907CA98DA99EA90E946D1218164CF520E010
S1131AA030E040E251E46D817E818F8198850E940F
S1131AB07212DC01CB01BC01CD010E948C11DC014E
S1131AC0CB0198AF8FAB0FC089E190E09AAF89AF9B
S1131AD089AD9AAD0197F1F79AAF89AF8FA998AD07
S1131AE0019798AF8FAB8FA998AD892B69F714C074
S1131AF06BA97CA98DA99EA90E948C11DC01CB0144
S1131B0098AF8FAB8FA998AD9CAF8BAF8BAD9CADCD
S1131B100197F1F79CAF8BAF83E00E94900B83E3B6
S1131B2093E3A3E8B0E489879A87AB87BC8720E076
S1131B3030E04AE753E469857A858B859C850E9469
S1131B407212DC01CB0189A79AA7ABA7BCA720E03E
S1131B5030E040E85FE369A57AA58BA59CA50E94C7
S1131B600E1188232CF481E090E09EA78DA73FC03E
S1131B7020E03FEF4FE757E469A57AA58BA59CA524
S1131B800E946D1218164CF520E030E040E251E45A
S1131B9069857A858B859C850E947212DC01CB0154
S1131BA0BC01CD010E948C11DC01CB019EA78DA745
S1131BB00FC089E190E098AB8FA78FA598A90197F2
S1131BC0F1F798AB8FA78DA59EA501979EA78DA72A
S1131BD08DA59EA5892B69F714C069A57AA58BA547
S1131BE09CA50E948C11DC01CB019EA78DA78DA51D
S1131BF09EA59AAB89AB89A99AA90197F1F79AABEB
S1131C0089AB83E00E94900B83E393E3A3E8B0E401
S1131C108D879E87AF87B88B20E030E04AE753E496
S1131C206D857E858F8598890E947212DC01CB01B7
S1131C308F8F98A3A9A3BAA320E030E040E85FE324
S1131C406F8D78A189A19AA10E940E1188232CF48A
S1131C5081E090E09CA38BA33FC020E03FEF4FE7DF
S1131C6057E46F8D78A189A19AA10E946D1218166C
S1131C704CF520E030E040E251E46D857E858F85AF
S1131C8098890E947212DC01CB01BC01CD010E9433
S1131C908C11DC01CB019CA38BA30FC089E190E0E4
S1131CA09EA38DA38DA19EA10197F1F79EA38DA361
S1131CB08BA19CA101979CA38BA38BA19CA1892B95
S1131CC069F714C06F8D78A189A19AA10E948C1123
S1131CD0DC01CB019CA38BA38BA19CA198A78FA310
S1131CE08FA198A50197F1F798A78FA383E00E948D
S1131CF0900B83E393E3A3E8B0E4898B9A8BAB8BDB
S1131D00BC8B20E030E04AE753E469897A898B8907
S1131D109C890E947212DC01CB018D8B9E8BAF8B50
S1131D20B88F20E030E040E85FE36D897E898F89D9
S1131D30988D0E940E1188232CF481E090E09A8FF4
S1131D40898F3FC020E03FEF4FE757E46D897E89DC
S1131D508F89988D0E946D1218164CF520E030E0A2
S1131D6040E251E469897A898B899C890E947212C4
S1131D70DC01CB01BC01CD010E948C11DC01CB0143
S1131D809A8F898F0FC089E190E09C8F8B8F8B8D08
S1131D909C8D0197F1F79C8F8B8F898D9A8D01977C
S1131DA09A8F898F898D9A8D892B69F714C06D89D3
S1131DB07E898F89988D0E948C11DC01CB019A8FCA
S1131DC0898F898D9A8D9E8F8D8F8D8D9E8D019794
S1131DD0F1F79E8F8D8F82E00E94900B88E20E9423
S1131DE03E0B109200018091000188600E943E0B1E
S1131DF00000CA5BDF4F0FB6F894DEBF0FBECDBF45
S1131E00DF91CF911F910F910895CF93DF93CDB7B9
S1131E10DEB780910001846080930001809100010D
S1131E2088600E943E0B0000DF91CF910895CF930C
S1131E30DF93CDB7DEB72E970FB6F894DEBF0FBE93
S1131E40CDBF81E00E943E0B80E090E0A0E0B0E4D2
S1131E5089839A83AB83BC8320E030E04AE753E470
S1131E6069817A818B819C810E947212DC01CB0191
S1131E708D839E83AF83B88720E030E040E85FE342
S1131E806D817E818F8198850E940E1188232CF4A8
S1131E9081E090E09A8789873FC020E03FEF4FE7D9
S1131EA057E46D817E818F8198850E946D1218168A
S1131EB04CF520E030E040E251E469817A818B8185
S1131EC09C810E947212DC01CB01BC01CD010E94F5
S1131ED08C11DC01CB019A8789870FC089E190E0DE
S1131EE09C878B878B859C850197F1F79C878B87D3
S1131EF089859A8501979A87898789859A85892B07
S1131F0069F714C06D817E818F8198850E948C1140
S1131F10DC01CB019A87898789859A859E878D877D
S1131F208D859E850197F1F79E878D8700002E96FB
S1131F300FB6F894DEBF0FBECDBFDF91CF910895E9
S1131F40CF93DF93CDB7DEB7809100018260809399
S1131F5000018091000184600E943E0B0000DF912B
S1131F60CF910895CF93DF9300D000D0CDB7DEB7E3
S1131F709C838B838B819C819A8389830BC0898109
S1131F809A81FC0180810E944D0B89819A8101967E
S1131F909A83898389819A81FC018081882379F7D6
S1131FA000000F900F900F900F90DF91CF91089544
S1131FB00F931F93CF93DF93CDB7DEB7C458D109E6
S1131FC00FB6F894DEBF0FBECDBF0E94460C0E9430
S1131FD0A00F0E94050F0E94170F19821A821B82FC
S1131FE01C820E94E50ADC01CB01BC01CD010E94E8
S1131FF08511DC01CB01092E000CAA0BBB0BBC0123
S1132000CD010E94BD11DC01CB0120E030E048ECA1
S113201052E4BC01CD010E947212DC01CB01898320
S11320209A83AB83BC839E012F5D3F4F89819A8144
S1132030AB81BC81890123E030E04AE050E0BC017F
S1132040CD010E94DF12CE0181960E94B20F80E082
S113205090E0A8ECB2E48D839E83AF83B88720E040
S113206030E04AE753E46D817E818F8198850E9438
S11320707212DC01CB018F8B988FA98FBA8F20E06D
S113208030E040E85FE36F89788D898D9A8D0E94F6
S11320900E1188232CF481E090E09C8F8B8F3FC03D
S11320A020E03FEF4FE757E46F89788D898D9A8D53
S11320B00E946D1218164CF520E030E040E251E425
S11320C06D817E818F8198850E947212DC01CB0123
S11320D0BC01CD010E948C11DC01CB019C8F8B8F44
S11320E00FC089E190E09E8F8D8F8D8D9E8D01971D
S11320F0F1F79E8F8D8F8B8D9C8D01979C8F8B8F8D
S11321008B8D9C8D892B69F714C06F89788D898D8F
S11321109A8D0E948C11DC01CB019C8F8B8F8B8D4F
S11321209C8D98A38F8F8F8D98A10197F1F798A319
S11321308F8F80E090E0AAEFB3E489879A87AB871A
S1132140BC8720E030E04AE753E469857A858B85D3
S11321509C850E947212DC01CB018D879E87AF871C
S1132160B88B20E030E040E85FE36D857E858F85A5
S113217098890E940E1188232CF481E090E09A8BB8
S1132180898B3FC020E03FEF4FE757E46D857E85A4
S11321908F8598890E946D1218164CF520E030E066
S11321A040E251E469857A858B859C850E94721290
S11321B0DC01CB01BC01CD010E948C11DC01CB01FF
S11321C09A8B898B0FC089E190E09C8B8B8B8B89D8
S11321D09C890197F1F79C8B8B8B89899A8901974C
S11321E09A8B898B89899A89892B69F714C06D85A3
S11321F07E858F8598890E948C11DC01CB019A8B96
S1132200898B89899A899E8B8D8B8D899E8901976B
S1132210F1F79E8B8D8B0E94170FE3CE0E94F8116D
S113222008F481E008950E9427110C9433120E944F
S11322302C1258F00E94251240F029F45F3F29F037
S11322400C941C1251110C9467120C9422120E94CB
S1132250441268F39923B1F3552391F3951B550B5D
S1132260BB27AA2762177307840738F09F5F5F4F65
S1132270220F331F441FAA1FA9F335D00E2E3AF0A4
S1132280E0E832D091505040E695001CCAF72BD0BC
S1132290FE2F29D0660F771F881FBB1F261737070D
S11322A04807AB07B0E809F0BB0B802DBF01FF273F
S11322B093585F4F3AF09E3F510578F00C941C12EE
S11322C00C9467125F3FE4F3983ED4F386957795B8
S11322D06795B795F7959F5FC9F7880F911D9695F8
S11322E0879597F90895E1E0660F771F881FBB1F54
S11322F0621773078407BA0720F0621B730B840B01
S1132300BA0BEE1F88F7E09508950E948C1168942B
S1132310B1110C94671208950E944C1288F09F57D3
S113232098F0B92F9927B751B0F0E1F0660F771FF5
S1132330881F991F1AF0BA95C9F714C0B13091F0EB
S11323400E946612B1E008950C946612672F782FEC
S11323508827B85F39F0B93FCCF3869577956795B0
S1132360B395D9F73EF490958095709561957F4F1C
S11323708F4F9F4F0895E89409C097FB3EF49095C2
S11323808095709561957F4F8F4F9F4F9923A9F04A
S1132390F92F96E9BB279395F695879577956795D9
S11323A0B795F111F8CFFAF4BB0F11F460FF1BC01D
S11323B06F5F7F4F8F4F9F4F16C0882311F096E9B0
S11323C011C0772321F09EE8872F762F05C066235E
S11323D071F096E8862F70E060E02AF09A95660F17
S11323E0771F881FDAF7880F9695879597F90895D0
S11323F0990F0008550FAA0BE0E8FEEF1616170612
S1132400E807F907C0F012161306E407F50798F079
S1132410621B730B840B950B39F40A2661F0232B92
S1132420242B252B21F408950A2609F4A140A6950E
S11324308FEF811D811D089597F99F6780E870E0F3
S113244060E008959FEF80EC089500240A94161626
S1132450170618060906089500240A94121613068E
S1132460140605060895092E0394000C11F488231C
S113247052F0BB0F40F4BF2B11F460FF04C06F5F38
S11324807F4F8F4F9F4F089557FD9058440F551F0E
S113249059F05F3F71F04795880F97FB991F61F0E2
S11324A09F3F79F087950895121613061406551F59
S11324B0F2CF4695F1DF08C0161617061806991FC5
S11324C0F1CF86957105610508940895E894BB27BA
S11324D066277727CB0197F908950E94F81108F42D
S11324E08FEF08950E9485120C9433120E942512D6
S11324F038F00E942C1220F0952311F00C941C1239
S11325000C94221211240C9467120E94441270F34A
S1132510959FC1F3950F50E0551F629FF001729F84
S1132520BB27F00DB11D639FAA27F00DB11DAA1F93
S1132530649F6627B00DA11D661F829F2227B00DE0
S1132540A11D621F739FB00DA11D621F839FA00D6B
S1132550611D221F749F3327A00D611D231F849FBB
S1132560600D211D822F762F6A2F11249F57504012
S11325709AF0F1F088234AF0EE0FFF1FBB1F661F8D
S1132580771F881F91505040A9F79E3F510580F056
S11325900C941C120C9467125F3FE4F3983ED4F33E
S11325A0869577956795B795F795E7959F5FC1F7FA
S11325B0FE2B880F911D9695879597F90895EF92B4
S11325C00F931F93CF93DF93E80147FD02C034E0DC
S11325D001C034E1042E000C550B57FF03C0519584
S11325E041955109E32E022F242FAE010E94FF12C0
S11325F0CE01DF91CF911F910F91EF900895A9E043
S1132600B0E0E5E0F3E10C9437156A01122FB02E27
S11326102BE3201720F0FF24F394F00E02C02CE3E8
S1132620F22E0F2D27E0AE014F5F5F4F0E94591429
S1132630BC014981842F8970813031F0E1FC06C0EE
S1132640E0FE06C090E205C09DE203C09BE201C02B
S113265090E05E2D507143FF3CC0911102C083E0B5
S113266001C084E0811718F4212F281B01C020E049
S113267051110BC0F601822F30E2882319F03193F7
S11326808150FBCFC20ED11C20E0992329F0D60142
S11326909C93F60131966F01C6010396E2FE0AC0CF
S11326A03EE4D6013C9341E411964C931197129663
S11326B03C9306C03EE6F601308341E64183328313
S11326C0FC01322F40E2332309F442C041933150DC
S11326D0FACF42FF44C0911102C083E001C084E0FC
S11326E0811718F4212F281B01C020E051110BC0C1
S11326F0F601822F30E2882319F031938150FBCF09
S1132700C20ED11C20E0992329F0D6019C93F60136
S113271031966F01C6010396E2FE0BC039E4D6017F
S11327203C933EE411963C93119736E412963C9305
S113273007C039E6F60130833EE6318336E632835C
S1132740FC01322F40E2332319F041933150FBCF87
S1132750FC01E20FF11D10828EEF9FEFA6C021E075
S113276030E0911102C020E030E0161617061CF488
S1132770FB01319602C0E1E0F0E02E0F3F1FBB20C9
S113278021F0EB2DF0E0319602C0E0E0F0E02E0FF6
S11327903F1FE12FF0E02E173F071CF4121B212FDF
S11327A001C020E08E2D887159F4F601822F30E2A9
S11327B0882319F031938150FBCFC20ED11C20E045
S11327C0992329F0D6019C93F60131966F0151119A
S11327D00BC0F601822F90E3882319F09193815066
S11327E0FBCFC20ED11C20E00F2D060F9A81342F8F
S11327F0307144FF03C0913309F40150101624F4DE
S1132800093018F008E001C001E0AB0177FF02C015
S113281040E050E0FB01E41BF50BA1E0B0E0AC0F9D
S1132820BD1FEA0FFB1F8EE2A82E4B01801A9108F0
S11328300B2D10E01195019511094F3FBFEF5B0778
S113284021F4D601AC9211966D01641775072CF032
S11328508416950614F4818101C080E34150510926
S11328603196D60111967D014017510724F0D60107
S11328708C936701E2CF6417750739F4963320F41B
S1132880953319F4311101C081E3F6018083F70116
S1132890822F90E2882319F091938150FBCFF701A6
S11328A0E20FF11D108280E090E02996ECE00C9498
S11328B05315283008F027E03327DA01990F311D2A
S11328C087FD916000966105710539F432602E5FD1
S11328D03D9330E32A95E1F708959F3F30F0803827
S11328E07105610509F03C5F3C5F3D93913008F050
S11328F08068911DDF93CF931F930F93FF92EF9204
S1132900192F987F9695E92F96959695E90FFF27AD
S1132910EE53FF4F99273327EE24FF24A701E70145
S113292005900894079428F4360FE71EF81E491FF3
S1132930511D660F771F881F991F0694A1F70590F4
S1132940079428F4E70EF81E491F561FC11D770F80
S1132950881F991F661F0694A1F70590079428F411
S1132960F80E491F561FC71FD11D880F991F661FD8
S1132970771F0694A1F70590079420F4490F561F7A
S1132980C71FD81F990F661F771F881F0694A9F7C2
S113299084911095177041F0D695C7955795479532
S11329A0F794E7941A95C1F7E8E6F0E06894159077
S11329B0159135916591959105907FE27395E11894
S11329C0F10A430B560BC90BD009C0F7E10CF11EF9
S11329D0431F561FC91FD01D7EF4703311F48A950E
S11329E0E6CFE894015030F0080F0AF400270217EC
S11329F008F4202F2395022F7A3328F079E37D936E
S1132A002A95E9F710C07D932A9589F6069497953F
S1132A106795379517951794E118F10A430B560BF0
S1132A20C90BD00998F023957E9173957A3308F0F9
S1132A3070E37C932013B8F77E9170617D9330F03E
S1132A40839571E37D9370E32A95E1F71124EF9068
S1132A50FF900F911F91CF91DF91992787FD90955A
S1132A6008952F923F924F925F926F927F928F922E
S1132A709F92AF92BF92CF92DF92EF92FF920F9309
S1132A801F93CF93DF93CDB7DEB7CA1BDB0B0FB613
S1132A90F894DEBF0FBECDBF09942A8839884888D0
S1132AA05F846E847D848C849B84AA84B984C88466
S1132AB0DF80EE80FD800C811B81AA81B981CE0F5D
S1132AC0D11D0FB6F894DEBF0FBECDBFED01089542
S1072AD0F894FFCFA4
S9030000FC
