S0120000446174614C6F676765722E7372656338
S11300000C94B1000C94CE000C94CE000C94CE0051
S11300100C94CE000C94CE000C94CE000C94CE0024
S11300200C94CE000C94CE000C94CE000C94E801F9
S11300300C94CE000C94CE000C94CE000C94CE0004
S11300400C94CE000C94CE000C94CE000C94CE00F4
S11300500C94CE000C94CE000C94CE000C94CE00E4
S11300600C94CE000C94CE0000407A10F35A00A0F9
S1130070724E18090010A5D4E80000E8764817006D
S113008000E40B54020000CA9A3B000000E1F505AD
S1130090000080969800000040420F000000A086F7
S11300A001000000102700000000E8030000000029
S11300B06400000000000A000000000001000000CD
S11300C000002C76D888DC674F0823DFC1DFAE59E7
S11300D0E1B1B796E5E3E453C63AE651997696E87A
S11300E0E6C28426EB898C9B62ED407C6FFCEFBCFE
S11300F09C9F40F2BAA56FA5F490055A2AF75C9329
S11301006B6CF9676DC11BFCE0E40D47FEF520E65E
S1130110B500D0ED902E0300943577050080841E41
S1130120080000204E0A000000C80C333333330F9C
S1130130986E12831141EF8D2114893BE65516CF39
S1130140FEE6DB18D1844B381BF77C1D901DA4BB45
S1130150E424203284725E228100C9F124ECA1E5FA
S11301603D2711241FBECFEFD8E0DEBFCDBF11E085
S1130170A0E0B1E0E4E5F0E302C005900D92AE3DED
S1130180B107D9F725E0AEEDB1E001C01D92AE385C
S1130190B207E1F70E9464050C9428180C9400003F
S11301A04098389A80EA8A95F1F7389894E19A95BC
S11301B0F1F786B19CE89A95F1F78170089540981B
S11301C0389A00008111389884E18A95F1F73898BB
S11301D008954098389A0000389884E08A95F1F799
S11301E000C086B19FE09A95F1F781700895CF938E
S11301F0DF93D82FC9E0C15031F08D2F81700E9458
S1130200DF00D695F8CFDF91CF910895CF93DF9398
S1130210D9E0C0E0D15049F00E94E90020E8829F73
S1130220C0011124C695C82BF5CF8C2FDF91CF9137
S11302300895CF93F8940E94D0008CEC0E94F700AC
S113024084E40E94F7000E94E9008823E1F30E94FD
S1130250D0008CEC0E94F7008EEB0E94F7000E9405
S11302600601C82F0E9406017894682F70E0762F4B
S113027066276C0F711D072E000C880B990B0E94CA
S11302808A1120E030E040E85DE30E943A1220E069
S113029030E040E85FE30E941611CF9108952BB13E
S11302A02F7030E1839FC0011124822B8BB95B989E
S11302B05B9A5B9884E68A95F1F70895CF93C82FEB
S11302C0662311F0599A01C0599858988C2F829539
S11302D08F700E944F018C2FCF910C944F0160E0DE
S11302E00C945E0161E00C945E018AB18B6F8AB953
S11302F085EA9EE00197F1F700C000008BB1847F8E
S11303008BB980E094E00197F1F700C0000083E02E
S11303100E944F0180E094E00197F1F700C00000D3
S113032083E00E944F0180E094E00197F1F700C060
S1130330000083E00E944F0180E094E00197F1F710
S113034000C0000082E00E944F0188E20E946F0119
S11303501092DE0188E00C946F018091DE01982FE9
S113036094609093DE018C600C946F018091DE01A7
S11303708B7F8093DE0188600C946F0181E00E9482
S11303806F0183EF91E00197F1F700C00000089539
S11303908091DE01982F92609093DE0186600C9428
S11303A06F01611161E0E62FF0E0E65FFE4F90819E
S11303B0890F80680C946F01CF93DF93EC018991CE
S11303C0882319F00E947201FACFDF91CF9108952A
S11303D01F920F920FB60F9211248F939F938091C7
S11303E0F9019091FA0101969093FA018093F90131
S11303F08091F7019091F80101969093F801809310
S1130400F7018091F5019091F60101969093F60120
S11304108093F5018091F3019091F40101969093FA
S1130420F4018093F3018091F1019091F20101961E
S11304309093F2018093F1018091EF019091F0018A
S113044001969093F0018093EF018091ED019091DA
S1130450EE0101969093EE018093ED018091EB0102
S11304609091EC0101969093EC018093EB019F91A4
S11304708F910F900FBE0F901F901895399A3A9A4A
S1130480209A88E088B980E188B980E288B982E45A
S11304909FE09093890080938800E1E8F0E08081F8
S11304A088608083AFE6B0E08C9182608C93808119
S11304B0846080830895CF92DF92EF92FF92CF936E
S11304C0DF93C0910401D0910501C090DF01D09069
S11304D0E001E090E101F090E201BE010D2E000C7C
S11304E0880B990B0E948A11A70196010E9483111F
S11304F018161CF0C831DC4FB1F4C0910201D09140
S11305000301BE010D2E000C880B990B0E948A1169
S11305109B01AC01C701B6010E9483111816C4F0F7
S1130520C83ED340A9F08091EB019091EC01039770
S113053044F081E090E09093EC018093EB014298C9
S113054007C08091EB019091EC01029709F4429A63
S1130550DF91CF91FF90EF90DF90CF900895349981
S1130560C5C01092F8011092F7011092F401109294
S1130570F3011092EC011092EB01289A42988091B9
S11305800001909101010E97E4F188E19CEF9093B2
S113059005018093040188EE93E090930301809316
S11305A002010E94BE018EE091E00E94DC0161E044
S11305B080E00E94D10189E191E00E94DC0160E0C9
S11305C080E00E94D1011092010110920001429832
S11305D08091E3019091E401892B39F481E090E06A
S11305E09093E4018093E30104C01092E40110921B
S11305F0E3012FE58AEE90E0215080409040E1F73E
S113060073C08091E3019091E401892B89F4809176
S113061004019091050188312CEF920719F482EEC0
S11306209FEF01C00596909305018093040110C0CB
S11306308091020190910301883E23E0920719F40E
S11306408EE190E001C0059790930301809302012D
S11306500E94BE018091E3019091E401892B71F421
S113066083E291E00E94DC0161E080E00E94D1011C
S1130670809105018F93809104010DC088E391E07E
S11306800E94DC0161E080E00E94D10180910301BD
S11306908F93809102018F9384E391E09F938F93D2
S11306A082EC94E09F938F930E940C1382EC94E06D
S11306B00E94DC010F900F900F900F900F900F90FD
S11306C060E080E00E94D1018091000190910101DD
S11306D0019690930101809300018FE59AEE20E04A
S11306E0815090402040E1F700C000000895339904
S11306F0D1C081E090E09093EA018093E9011092E7
S1130700F8011092F7011092F4011092F301289A63
S113071080910801909109018A309105A9F40E9401
S1130720BE0189E491E00E94DC0161E080E00E9466
S1130730D10183E591E00E94DC0160E080E00E9449
S1130740D1018EE190E02FC08E319105A9F40E9471
S1130750BE0189E491E00E94DC0161E080E00E9436
S1130760D10189E591E00E94DC0160E080E00E9413
S1130770D1018CE390E017C08C33910501F50E9400
S1130780BE0189E491E00E94DC0161E080E00E9406
S1130790D1018EE591E00E94DC0160E080E00E94DE
S11307A0D1018CE291E090930901809308012FE537
S11307B08AEE90E0215080409040E1F769C08C328D
S11307C021E09207A9F40E94BE0189E491E00E940D
S11307D0DC0161E080E00E94D10183E691E00E94A7
S11307E0DC0160E080E00E94D10188E592E045C030
S11307F0883522E09207A9F40E94BE0189E491E0C1
S11308000E94DC0161E080E00E94D10189E691E070
S11308100E94DC0160E080E00E94D10188E097E062
S11308202CC088309740A9F40E94BE0189E491E06D
S11308300E94DC0161E080E00E94D1018FE691E03A
S11308400E94DC0160E080E00E94D10180E19EE032
S113085014C00E94BE0189E491E00E94DC0161E0C1
S113086080E00E94D10182E791E00E94DC0160E017
S113087080E00E94D1018AE090E090930901809386
S113088008018FE59AEE20E0815090402040E1F786
S113089000C0000008958091EF019091F00103974A
S11308A0CCF01092F0011092EF0140E060E072E0B1
S11308B082EC92E00E94C807882339F081E090E03E
S11308C09093E6018093E50108951092E601109259
S11308D0E50141980895359905C01092F4011092EC
S11308E0F301289A08950F931F932091F5013091F5
S11308F0F6018091060190910701281739077CF1D0
S11309008091E9019091EA01892B49F51092F60151
S11309101092F5010E9419016093DF017093E001C8
S11309208093E1019093E20106E215E021E030E0DA
S113093049E050E00E94E3120E94BE0188E791E082
S11309400E94DC0161E080E00E94D101C8010E94A4
S1130950DC0186E391E01F910F910C94DC011F915F
S11309600F9108958091F3019091F40104972CF074
S113097028981092F4011092F30108958091F101E6
S11309809091F2010797E4F01092F2011092F101B4
S11309900E94B6010E9475010E94AD010E94BE0131
S11309A088E791E00E94DC0161E080E00E94D101CF
S11309B086E295E00E94DC0186E391E00C94DC0180
S11309C008958091E5019091E601019799F4809151
S11309D0ED019091EE01019711F4419A08958091EF
S11309E0ED019091EE0102972CF01092EE0110921D
S11309F0ED01419808958091F7019091F80180FDEF
S1130A0022C08091E9019091EA010197E1F480917B
S1130A10F7019091F801892BB1F00E94BE0188E79B
S1130A2091E00E94DC0161E080E00E94D10186E255
S1130A3095E00E94DC0186E391E00E94DC011092C3
S1130A40EA011092E90108952091F9013091FA0127
S1130A50809108019091090128173907A4F1809128
S1130A60E5019091E601892B71F51092FA0110923B
S1130A70F901419A86E295E09F938F938091090151
S1130A808F93809108018F9386E891E09F938F93D1
S1130A9080E092E09F938F930E940C1340E052E019
S1130AA064EA71E086E992E00E94DE079093E8012F
S1130AB08093E70141988DB79EB708960FB6F894D6
S1130AC09EBF0FBE8DBF08950E9475010E94C8018C
S1130AD00E94AD010E94BE018DEA91E00E94DC01FA
S1130AE061E080E00E94D10189EB91E00E94DC0189
S1130AF060E080E00E94D1012FE38DE093E021507B
S1130B0080409040E1F700C000000E94BE0140E038
S1130B1060E072E082EC92E00E94C807882361F0F2
S1130B2085EC91E00E94DC0161E080E00E94D1014B
S1130B3085ED91E00E94DC0140E060E072E082EC2F
S1130B4092E00E94C8078111F7CF2FE38DE093E074
S1130B50215080409040E1F700C000000E947501E0
S1130B6060E080E00E94D1010E94B6010E94AD01C4
S1130B700E94BE010E943E0278940E941901609373
S1130B80DF017093E0018093E1019093E20106E2BA
S1130B9015E021E030E049E050E00E94E31288E7EC
S1130BA091E00E94DC0161E080E00E94D101C80173
S1130BB00E94DC0186E391E00E94DC010E94AF0206
S1130BC00E945B020E944B040E94BE040E94240502
S1130BD00E94FB040E94B2040E9473040E946B04EE
S1130BE00E9477030E94E104E9CF8FEF8EBD0DB41C
S1130BF007FEFDCF8EB508952A9A0C94F505CF9281
S1130C00DF92EF92FF92CF93C82F6A017B0187FF97
S1130C1009C040E050E0BA0187E70E94FF05823036
S1130C20D0F5CF772A9A0E94F5052A980E94F505F7
S1130C30CEBD0DB407FEFDCF8F2D9927AA27BB2764
S1130C408EBD0DB407FEFDCFC701AA27BB278EBDFD
S1130C500DB407FEFDCFBB27AF2D9E2D8D2D8EBD70
S1130C600DB407FEFDCFCEBC0DB407FEFDCFC034DE
S1130C7021F0C83421F487E803C085E901C081E08C
S1130C808EBD0DB407FEFDCFCAE00E94F50587FFB7
S1130C9002C0C150D1F7CF91FF90EF90DF90CF9079
S1130CA008950F931F93CF93AB01BC0141155105D8
S1130CB06105710511F18091FD0183FD07C089E093
S1130CC0440F551F661F771F8A95D1F788E50E9448
S1130CD0FF05811138C08FEF8EBD0DB407FEFDCF27
S1130CE08EEF8EBD0DB407FEFDCF80E092E09093B1
S1130CF0FC018093FB01C0E027C08091FB0190912F
S1130D00FC010296019710F01EBCFCCF0DB407FE47
S1130D10FDCF0E94F5058F71853019F408EE1DEFA3
S1130D2007C0C1E00DC001151105D9F30150110927
S1130D300E94F5058F3FB9F7C1E0012B09F0C0E02F
S1130D400E94FC0501C0C1E08C2FCF911F910F912F
S1130D500895CF92DF92EF92FF920F931F93CF9358
S1130D60DF9300D000D0CDB7DEB72A9905C060E08C
S1130D7070E0CB010E94510614E60E94F505115063
S1130D80E1F740E050E0BA0180E40E94FF058130C1
S1130D9009F058C04AEA51E060E070E088E40E943B
S1130DA0FF05813049F58E010F5F1F4F6E0185E00D
S1130DB0C80ED11C78010E94F505F70181937F01CB
S1130DC0EC15FD05C1F78B81813009F03BC08C81A6
S1130DD08A3AC1F590EEE92E9EE2F92E40E050E009
S1130DE060E070E489EE0E94FF05882319F1F1E0C8
S1130DF0EF1AF10899F726C040E050E0BA0189EEF5
S1130E000E94FF05823018F011E001E402C012E0F4
S1130E1009EE88EAE82E81E6F82E40E050E0BA01B7
S1130E20802F0E94FF05882331F1F1E0EF1AF108C9
S1130E30A1F708C040E050E0BA018AE70E94FF052C
S1130E40882311F010E00CC00E94F505F80181938D
S1130E508F01CE16DF06C1F7898186FD0AC014E032
S1130E601093FD010E94FC0581E0112371F080E0E4
S1130E700CC01CE0F5CF40E052E060E070E080E59B
S1130E800E94FF058111DECFEBCF0F900F900F90E2
S1130E900F90DF91CF911F910F91FF90EF90DF9012
S1130EA0CF900895CF92DF92EF92FF920F931F930A
S1130EB0CF93DF937C0169018091FD0183FD07C01D
S1130EC089E0440F551F661F771F8A95D1F781E586
S1130ED00E94FF05882311F0C1E02BC0C0E3D5E7D1
S1130EE00E94F5058F3F19F42197D1F7F5CF8E3F76
S1130EF099F7C2E0D2E0C01BD10BCC19DD09C114B3
S1130F00D10421F4E114F10439F40EC00E94F50572
S1130F1081E0C81AD108F3CF0E94F505F701819347
S1130F207F0101501109C1F70E94F5052197E1F7EE
S1130F30C0E00E94FC058C2FDF91CF911F910F918F
S1130F40FF90EF90DF90CF9008950097D9F0FC01C7
S1130F5041155105D9F08091FB019091FC01892B39
S1130F60A9F081918EBD0DB407FEFDCF8091FB01E8
S1130F709091FC0101979093FC018093FB014150F7
S1130F805109E6CFCB01BA010C94510680E00895D3
S1130F9024B12C6224B92A9A2CB520652CBD9093D7
S1130FA08B0580938A0570938D0560938C0544238B
S1130FB019F08CB581608CBD0C94A9062F923F92D8
S1130FC04F925F926F927F928F929F92AF92BF9255
S1130FD0CF92DF92EF92FF920F931F93CF93DF9301
S1130FE000D000D000D0CDB7DEB75C017E836D8326
S1130FF08A01FA0101900020E9F731974F01841A20
S1131000950A70908A0560908B0588EEE82E83E03F
S1131010F82E0E94A906882329F021E0E21AF1089B
S1131020C0F705C0EF2819F48FEF90E086C1B8EE41
S1131030EB2EB3E0FB2EC5010E94A20C882329F0FD
S113104091E0E91AF108B8F777C1EF2809F473C100
S1131050A8EEEA2EA3E0FA2E8D819E810E94AB0DAC
S1131060882329F0F1E0EF1AF108B0F765C1EF2801
S113107009F461C1C12CD12C7601AE014F5F5F4FE1
S113108060E072E080918A0590918B050E94050EC4
S113109089819A8181159240B8F0272D362D40E040
S11310A050E0C9012F5F3F4FFC016081603A89F035
S11310B04F5F5F4F4115F2E05F0799F78FEFC81A52
S11310C0D80AE80AF80AD9CF11E00E94A906812FAC
S11310D033C160E072E0FB01E41BF50BFC83EB839E
S11310E029E0CC0CDD1CEE1CFF1C2A95D1F7E81579
S11310F0F90598F1A401B8010E940313F8EE8F2EAC
S1131100F3E09F2EA12CB12CC701B6010E94EE0F73
S1131110882361F021E0821A9108A108B1083FEF09
S113112083169306A306B30679F706C089288A288E
S11311308B2811F414E6C9CFAE014F5F5F4F60E016
S113114072E0872D962D0E94E30E89819A81811584
S1131150924008F0C8C015E0B8CF4B815C81B8015B
S11311600E940313E8EE2E2EE3E03E2E412C512C78
S1131170C701B6010E94EE0F882309F4B6C0F1E05E
S11311802F1A3108410851082FEF22163206420661
S1131190520671F7AE014F5F5F4F60E072E0872D3A
S11311A0962D0E94E30E89819A818115924098F2CE
S11311B0AE014F5F5F4F60E070E080E090E00E941E
S11311C0E30E78EE872E73E0972E0E94A9068823FB
S11311D009F491C081E0881A9108B8F768EE862E68
S11311E063E0962EC5010E94A20C811188C0892853
S11311F009F4A1C058EEA52E53E0B52E8D819E8131
S11312000E94AB0D811181C0AB2809F494C082E027
S1131210D80EE11CF11C48EE842E43E0942EA12C40
S1131220B12CC701B6010E94EE0F882309F473C0E4
S113123091E0891A9108A108B108EFEF8E169E0675
S1131240AE06BE0671F760918C0570918D05AE01F6
S11312504F5F5F4F80918A0590918B050E94050E28
S11312606B817C81600F711FFB0101900020E9F705
S11312703197AF01461B570B872D962D0E94031300
S113128038EE832E33E0932EA12CB12CC701B60186
S11312900E94EE0F882309F444C0F1E08F1A9108EC
S11312A0A108B1082FEF82169206A206B20671F7C2
S11312B0AE014F5F5F4F60E072E0872D962D0E9474
S11312C0E30EAE014F5F5F4F60E070E080E090E0BE
S11312D00E94E30E08EE13E00E94A906882339F168
S11312E001501109C8F710E0F0CE2328242825283E
S11312F009F420CF4FCF892809F496CE6FCFE1E0CF
S11313008E1A910808F06ECF17C021E0A21AB10816
S113131008F074CF11C089288A288B2809F40ACFD1
S113132092CF89288A288B2809F404CFC1CF012BB6
S113133009F47ACED8CF8FEF90E026960FB6F894C2
S1131340DEBF0FBECDBFDF91CF911F910F91FF90F4
S1131350EF90DF90CF90BF90AF909F908F907F9051
S11313606F905F904F903F902F9008950F931F932D
S1131370E091FE01F091FF019B01AC012250310983
S11313804109510980859185A285B3850297A109F8
S1131390B109281739074A075B0768F4A181B0E04F
S11313A00E94C9120489158926893789600F711F23
S11313B0821F931F03C060E070E0CB011F910F9167
S11313C008950F931F93CF93DF93DC01E091FE0107
S11313D0F091FF0111961C921E9214966D917D91CD
S11313E08D919C911797613071058105910561F18B
S11313F0008511852285338560177107820793075D
S113140018F5611571058105910539F420812330A2
S113141021F46089718982899389ED0168877987CC
S11314208A879B87611571058105910519F00E94D2
S1131430B60904C060897189828993896C877D8724
S11314408E879F8780E001C081E0DF91CF911F915B
S11314500F9108954F925F926F927F92AF92BF92D5
S1131460CF92DF92EF92FF920F931F93CF93DF936C
S113147000D000D0CDB7DEB762307105810591058B
S113148008F4AAC0A090FE01B090FF01F501C08449
S1131490D184E284F3846C157D058E059F0508F0E4
S11314A09BC06B017C018081823009F452C083307F
S11314B009F46BC0813009F08FC02601569447941B
S11314C04C0C5D1C92013170452C55244694612CC2
S11314D0712C4485558566857785440D551D661D9B
S11314E0771D2F3FF1E03F0729F002E010E0CE0125
S11314F001961BC001E010E02FEF31E0CE01019610
S11315000E945207811168C0F5014485558566859E
S113151077854F5F5F4F6F4F7F4F440D551D661D9D
S1131520771D20E030E0CE0102960E94520781111F
S113153053C089819A81C0FE07C0BC01E4E076955E
S11315406795EA95E1F702C0BC017F7080E090E006
S113155047C096013327220F331F77276F2D5E2D47
S11315604D2DF50184859585A685B785480F591FAE
S11315706A1F7B1F02E010E0CE0101960E94520711
S113158081112AC069817A81E1CF96012F773327AF
S1131590220F331F220F331F97E0F694E794D7945A
S11315A0C7949A95D1F7F501448555856685778565
S11315B04C0D5D1D6E1D7F1D04E010E0CE010196F3
S11315C00E945207811108C089819A81AB81BC8134
S11315D0BC01CD019F7004C061E070E080E090E048
S11315E00F900F900F900F90DF91CF911F910F915B
S11315F0FF90EF90DF90CF90BF90AF907F906F906F
S11316005F904F900895CF92DF92EF92FF920F93E5
S11316101F93CF93DF93EC01088119810F5F1F4F54
S113162011F483E05BC04C855D856E857F85411533
S1131630510561057105A9F3C8018F709927892B9C
S113164009F047C0E090FE01F090FF014F5F5F4F4B
S11316506F4F7F4F4C875D876E877F87688579855D
S11316608A859B85F701611571058105910531F422
S11316708481958108171907A0F62BC0218130E0D9
S1131680A901415051099801E4E036952795EA955E
S1131690E1F724233523232BE1F40E942A0A623044
S11316A0710581059105C8F0F701C084D184E284F5
S11316B0F3846C157D058E059F0508F0B2CF68870D
S11316C079878A879B870E94B6096C877D878E8776
S11316D09F871983088380E001C081E0DF91CF9167
S11316E01F910F91FF90EF90DF90CF900895CF92CC
S11316F0DF92EF92FF920F931F93CF93DF93EC014E
S11317006A017B0102E010E02EEF31E00E945207F3
S1131710811126C08881998185359A4A19F526E375
S113172030E0B701A601CE010E945207811107C023
S1131730888199818634914411F480E016C002E0D6
S113174010E022E530E0B701A601CE010E94520765
S113175081110AC0888199818634914429F4EDCF9E
S113176083E003C082E001C081E0DF91CF911F914B
S11317700F91FF90EF90DF90CF900895AF92BF92BA
S1131780CF92DF92EF92FF920F931F93CF93DF9349
S1131790EC016B01FB0180816F5F7F4F8032C9F3E5
S11317A08F3209F46B011C821D821E821F82F60196
S11317B08081813218F050E2E52E74C0CE010E947F
S11317C0E109F82EE091FE01F091FF010680F78116
S11317D0E02D1082ABC090E080E028E031E0380FCB
S11317E0D601A80FB11D8C91813208F066C0C30EDA
S11317F0D11C91E0813208F090E09387CE010E94E1
S1131800E109F82E81117BC0E091FE01F091FF0106
S1131810A680B780288139812F70332745E0220FB5
S1131820331F4A95E1F74C855D856E857F8500E21F
S113183010E0C5010E94520781116CC0F50180813E
S1131840882309F45FC0838583FD52C06A817B814C
S1131850C501DB01AB01455F5F4F4A175B0709F028
S113186040C0FB018385811161C0E091FE01F091CC
S1131870FF010680F781E02D838584FF48C08489B9
S11318809589A0E0B0E0DC0199278827428D538D2B
S113189060E070E0842B952BA62BB72B8C839D8363
S11318A0AE83BF83EA81FB81DF01CF010B96A817CA
S11318B0B90709F490CFED92FACF8F3209F497CF9C
S11318C08E3271F1921708F092CF4FE9480F4A31E6
S11318D008F48052DF01A90FB11D8C939F5F832F01
S11318E07DCFFC013191CF012D91321709F4B5CF91
S11318F0CE010E94030B882309F48CCFF82EF3E069
S1131900FF1214C0EA81FB818385811106C034E093
S1131910F32E0CC0FF24F39409C083E0F82E06C014
S1131920283009F064CF98E02BE0D9CF8F2DDF91D8
S1131930CF911F910F91FF90EF90DF90CF90BF90C8
S1131940AF9008952F923F924F925F926F927F9241
S11319508F929F92AF92BF92CF92DF92EF92FF92BB
S11319600F931F93CF93DF93CDB7DEB7A4970FB632
S1131970F894DEBF0FBECDBF1092FF011092FE019E
S1131980009709F4CCC01C010E94A90680FDC9C0BF
S113199040E050E0BA01CE0101960E94770B8130FD
S11319A0F9F400E110E02EEB31E040E050E0BA0140
S11319B0CE0101960E945207882311F081E0B2C043
S11319C08D81811102C087E0ADC049845A846B8443
S11319D07C84B301A201CE0101960E94770B03C05F
S11319E0412C512C3201833049F38111ECCF04E2B4
S11319F010E02DE030E0B301A201CE0101960E9477
S1131A0052078111DBCF2A853B8540E050E0211548
S1131A1031054105510521F4288D398D4A8D5B8DA1
S1131A20AC81B0E00E94C9126B017C014A815B81E8
S1131A3060E070E0440E551E661E771EF101448678
S1131A40558666867786298121838D809E8095823E
S1131A5084828F819885A0E0B0E00097A105B1054C
S1131A6021F48C899D89AE89BF8934E0969487944A
S1131A703A95E1F7A12CB12C841B950BA60BB70B5F
S1131A808C199D09AE09BF09BC01CD0168197909FA
S1131A908A099B0930E040E050E00E94A712DA0175
S1131AA0C9010296A11DB11DF10180879187A2870A
S1131AB0B387873FFFE09F07A105B10538F0873F53
S1131AC09F4FA105B10520F083E003C081E001C070
S1131AD082E0F1018083833029F488A199A1AAA12D
S1131AE0BBA107C0D701C601840D951DA61DB71D56
S1131AF0F101808B918BA28BB38B840C951CA61C5B
S1131B00B71C8C0C9D1CAE1CBF1CF101848A958AE9
S1131B10A68AB78A12823092FF012092FE0180E0E9
S1131B2001C082E0A4960FB6F894DEBF0FBECDBF0D
S1131B30DF91CF911F910F91FF90EF90DF90CF90A5
S1131B40BF90AF909F908F907F906F905F904F90D9
S1131B503F902F9008950F931F93CF93DF93CDB7AA
S1131B60DEB7EC970FB6F894DEBF0FBECDBF009181
S1131B70FE011091FF0101151105C9F1BC01F80125
S1131B801282CE01019697838683C0969CA38BA371
S1131B9040970E94BE0B81112DC08981882349F191
S1131BA08C8584FD26C08D899E89A0E0B0E0DC018F
S1131BB0992788274B8D5C8D60E070E0842B952BF2
S1131BC0A62BB72BF80180A391A3A2A3B3A38D8D59
S1131BD09E8DAF8DB8A1848F958FA68FB78F108EF1
S1131BE0118E128E138E81E0828380E003C086E022
S1131BF001C083E0EC960FB6F894DEBF0FBECDBFF4
S1131C00DF91CF911F910F9108954F925F926F9240
S1131C107F928F929F92AF92BF92CF92DF92EF9278
S1131C20FF920F931F93CF93DF934C016B015A01E3
S1131C30C091FE01D091FF01FA0111821082209718
S1131C4009F4ADC08A8180FFACC08C8D9D8DAE8DB2
S1131C50BF8D488D598D6A8D7B8D841B950BA60B8A
S1131C60B70BA60160E070E084179507A607B707D5
S1131C7008F46C013401412CF2E05F2EC114D1044C
S1131C8009F488C0E88CF98C0A8D1B8DD801C70132
S1131C909170AA27BB27892B8A2B8B2B09F047C06D
S1131CA0298130E040E050E0C801B701E9E09695B1
S1131CB0879577956795EA95D1F70E94A712672BC8
S1131CC0682B692BD1F4EF28E02AE12A29F468A1D2
S1131CD079A18AA19BA106C06CA17DA18EA19FA11F
S1131CE00E942A0A623071058105910508F454C0E6
S1131CF06CA37DA38EA39FA31B826CA17DA18EA147
S1131D009FA10E94B609611571058105910509F429
S1131D1043C02B8131E0320F3B83DC01CB01820FC6
S1131D20911DA11DB11D88A799A7AAA7BBA7288D9E
S1131D30398D3170C201821B930B76018C159D0580
S1131D4008F47C0148A559A56AA57BA581149104D2
S1131D5011F0C30102C080E090E087010E945207A5
S1131D6081111AC0888D998DAA8DBB8D8E0D9F1DF2
S1131D70A11DB11D888F998FAA8FBB8F6E0C7F1CFC
S1131D80CE18DF08F50180819181E80EF91EF182F9
S1131D90E08274CF80E006C01A8281E003C086E04E
S1131DA001C085E0DF91CF911F910F91FF90EF90DB
S1131DB0DF90CF90BF90AF909F908F907F906F9067
S1131DC05F904F9008954F925F926F927F928F929F
S1131DD09F92AF92BF92CF92DF92EF92FF920F93B6
S1131DE01F93CF93DF936C018B015A01C091FE01C5
S1131DF0D091FF01FA0111821082209709F4DAC010
S1131E008A8180FFD9C08074672B81F4811104C05A
S1131E108A818F7B8A83C9C040E050E0BA0180E0A8
S1131E2090E00E94A5078111C2C0F2CF81110AC0BF
S1131E30888D998DAA8DBB8D88279E7F888F998FD9
S1131E40AA8FBB8F8C8D9D8DAE8DBF8D488D598D86
S1131E506A8D7B8D841B950BA60BB70BA80160E0E4
S1131E6070E084179507A607B70708F48C01812C46
S1131E70F2E09F2E0115110509F497C0488C598C86
S1131E806A8C7B8CC2019170892B09F050C0298126
S1131E9030E040E050E0C301B201E9E09695879557
S1131EA077956795EA95D1F70E94A712672B682B5F
S1131EB0692BD1F445284628472829F468A179A13B
S1131EC08AA19BA106C06CA17DA18EA19FA10E94A5
S1131ED02A0A623071058105910508F468C06CA373
S1131EE07DA38EA39FA31B826CA17DA18EA19FA124
S1131EF00E94B609611571058105910509F457C061
S1131F002B8131E0320F3B83AB01BC01420F511DE9
S1131F10611D711D48A759A76AA77BA780E090E0BF
S1131F200E94A507811143C08A8180648A83888DB9
S1131F30998D91709401281B390B78012017310772
S1131F4008F479012701612C712CB301A201C601A7
S1131F500E94A50781112BC0888D998DAA8DBB8DF8
S1131F60480E591E6A1E7B1E488E598E6A8E7B8EC1
S1131F70CE0CDF1C0E191F09F50180819181E80E3A
S1131F80F91EF182E082F1E05F22452809F072CF68
S1131F9040E050E0BA0180E090E00E94A507811182
S1131FA006C08A818F7B8A8365CF80E006C01A824F
S1131FB081E003C086E001C085E0DF91CF911F91ED
S1131FC00F91FF90EF90DF90CF90BF90AF909F90D4
S1131FD08F907F906F905F904F9008954F925F9293
S1131FE06F927F928F929F92AF92BF92CF92DF9225
S1131FF0EF92FF92CF93DF9300D000D000D0CDB703
S1132000DEB72091FE013091FF013E832D8321151F
S1132010310509F4F3C0D90112962C91129720FFCF
S1132020EFC05C96CD90DD90ED90FC905F976C15C1
S11320307D058E059F0510F46B017C01ED81FE8109
S1132040408C518C628C738C108E118E128E138E78
S1132050C114D104E104F10409F4C8C0ED81FE8186
S11320608180912CA12CB12C39E0880C991CAA1CDC
S1132070BB1C3A95D1F7411451046104710409F46D
S113208040C0F1E04F1A510861087108C701B60158
S11320906150710981099109A50194010E94A71257
S11320A029833A834B835C83C301B201A501940164
S11320B00E94A71289819A81AB81BC818217930700
S11320C0A407B507F0F088279927DC018819990936
S11320D0AA09BB09482259226A227B22AD81BE810A
S11320E058964D925D926D927C925B97C418D50878
S11320F0E608F70894966D917D918D919C91979740
S113210033C0ED81FE8160A171A182A193A164A37A
S113211075A386A397A328C00E942A0A623071057A
S11321208105910508F464C0ED81FE8140845184E9
S113213062847384641575058605970508F058C094
S113214064A375A386A397A3408C518C628C738C73
S1132150480C591C6A1C7B1C408E518E628E738EF7
S1132160C818D908EA08FB088C149D04AE04BF04FF
S113217098F2AD81BE8158968D909D90AD90BC90A3
S11321805B978C0C9D1CAE1CBF1CFD01808E918E38
S1132190A28EB38E0E94B609611571058105910561
S11321A039F14601570129E0B694A794979487948E
S11321B02A95D1F7F1E0DF22EE24FF24CD28CE28A2
S11321C0CF2829F4AD81BE8113968C920FC021E0F3
S11321D0280DED81FE812383DC01CB01880D991D3F
S11321E0AA1DBB1D80A791A7A2A7B3A780E009C021
S11321F0AD81BE8112961C9281E003C086E001C0CD
S113220085E026960FB6F894DEBF0FBECDBFDF91F2
S1132210CF91FF90EF90DF90CF90BF90AF909F90C1
S11322208F907F906F905F904F9008955058BB2788
S1132230AA270E942E110C9400120E94F21138F069
S11322400E94F91120F039F49F3F19F426F40C94FC
S1132250EF110EF4E095E7FB0C94E911E92F0E94CD
S1132260111258F3BA17620773078407950720F011
S113227079F4A6F50C9433120EF4E0950B2EBA2FD4
S1132280A02D0B01B90190010C01CA01A001112478
S1132290FF27591B99F0593F50F4503E68F11A1624
S11322A0F040A22F232F342F4427585FF3CF4695B5
S11322B037952795A795F0405395C9F77EF41F16D7
S11322C0BA0B620B730B840BBAF09150A1F0FF0FA1
S11322D0BB1F661F771F881FC2F70EC0BA0F621F8D
S11322E0731F841F48F4879577956795B795F7957D
S11322F09E3F08F0B0CF9395880F08F09927EE0F12
S11323009795879508950E94C51108F481E0089572
S1132310E89409C097FB3EF490958095709561957B
S11323207F4F8F4F9F4F9923A9F0F92F96E9BB2731
S11323309395F695879577956795B795F111F8CFAD
S1132340FAF4BB0F11F460FF1BC06F5F7F4F8F4F18
S11323509F4F16C0882311F096E911C0772321F00E
S11323609EE8872F762F05C0662371F096E8862FA6
S113237070E060E02AF09A95660F771F881FDAF7FD
S1132380880F9695879597F90895990F0008550F2A
S1132390AA0BE0E8FEEF16161706E807F907C0F0E7
S11323A012161306E407F50798F0621B730B840BEF
S11323B0950B39F40A2661F0232B242B252B21F4C9
S11323C008950A2609F4A140A6958FEF811D811D69
S11323D0089597F99F6780E870E060E008959FEFA3
S11323E080EC089500240A941616170618060906A8
S11323F0089500240A941216130614060506089577
S1132400092E0394000C11F4882352F0BB0F40F4FE
S1132410BF2B11F460FF04C06F5F7F4F8F4F9F4F3E
S1132420089557FD9058440F551F59F05F3F71F0C0
S11324304795880F97FB991F61F09F3F79F0879527
S11324400895121613061406551FF2CF4695F1DFB0
S113245008C0161617061806991FF1CF8695710540
S1132460610508940895E894BB2766277727CB0174
S113247097F908950E944D120C9400120E94F211D3
S113248038F00E94F91120F0952311F00C94E91111
S11324900C94EF1111240C9434120E94111270F355
S11324A0959FC1F3950F50E0551F629FF001729FF5
S11324B0BB27F00DB11D639FAA27F00DB11DAA1F04
S11324C0649F6627B00DA11D661F829F2227B00D51
S11324D0A11D621F739FB00DA11D621F839FA00DDC
S11324E0611D221F749F3327A00D611D231F849F2C
S11324F0600D211D822F762F6A2F11249F57504083
S11325009AF0F1F088234AF0EE0FFF1FBB1F661FFD
S1132510771F881F91505040A9F79E3F510580F0C6
S11325200C94E9110C9434125F3FE4F3983ED4F315
S1132530869577956795B795F795E7959F5FC1F76A
S1132540FE2B880F911D9695879597F90895A1E222
S11325501A2EAA1BBB1BFD010DC0AA1FBB1FEE1F19
S1132560FF1FA217B307E407F50720F0A21BB30B64
S1132570E40BF50B661F771F881F991F1A9469F7E0
S113258060957095809590959B01AC01BD01CF013C
S113259008950E94D412A59F900DB49F900DA49FFE
S11325A0800D911D11240895A29FB001B39FC00115
S11325B0A39F700D811D1124911DB29F700D811D6B
S11325C01124911D0895EF920F931F93CF93DF93DE
S11325D0E80147FD02C034E001C034E1042E000CE0
S11325E0550B57FF03C0519541955109E32E022F16
S11325F0242FAE010E940F15CE01DF91CF911F91C0
S11326000F91EF900895FB01DC0102C001900D923F
S113261041505040D8F70895AEE0B0E0E2E1F3E174
S11326200C94FF170D891E8986E08C831A83098315
S11326308FEF9FE79E838D83AE01475E5F4F6F8967
S1132640788DCE0101960E942E13EF81F885E00F5C
S1132650F11F10822E96E4E00C941B18ABE0B0E05E
S1132660E4E3F3E10C94F1176C017B018A01FC01B2
S113267017821682838181FFCCC1CE0101963C0171
S1132680F6019381F70193FD859193FF81917F0179
S1132690882309F4BAC1853239F493FD859193FFF7
S11326A081917F01853229F4B60190E00E94571789
S11326B0E7CF912C212C312CFFE1F315D8F08B328C
S11326C079F038F4803279F08332A1F4232D20613B
S11326D01DC08D3261F0803369F4232D216016C052
S11326E0832D8260382EE32DE4603E2E2AC0F32D24
S11326F0F8601DC037FC2DC020ED280F2A3040F0B3
S11327008E32B9F436FC81C1232D2064322E19C0D7
S113271036FE06C08AE0989E200D1124922E11C028
S1132720EAE02E9E200D1124222EF32DF0623F2E7E
S113273008C08C3621F4832D8068382E02C0883678
S113274041F4F70193FD859193FF81917F018111FC
S1132750B3CF982F9F7D9554933028F40C5F1F4F6F
S11327609FE399830DC0833631F0833771F083354D
S113277009F059C021C0F801808189830E5F1F4F81
S113278088248394912C530113C02801F2E04F0E46
S1132790511CF801A080B18036FE03C0692D70E0A1
S11327A002C06FEF7FEFC5010E944C174C018201FC
S11327B0F32DFF773F2E16C0280122E0420E511C54
S11327C0F801A080B18036FE03C0692D70E002C01C
S11327D06FEF7FEFC5010E9441174C01F32DF068A4
S11327E03F2E820133FC1BC0822D90E0881699068F
S11327F0B0F4B60180E290E00E9457172A94F4CF17
S1132800F50137FC859137FE81915F01B60190E0B7
S11328100E94571721102A9421E0821A91088114EA
S1132820910471F7E8C0843611F0893641F5F80156
S113283037FE07C060817181828193810C5F1F4FD5
S113284008C060817181072E000C880B990B0E5F04
S11328501F4FF32DFF763F2E97FF09C0909580956B
S1132860709561957F4F8F4F9F4FF0683F2E2AE000
S113287030E0A3010E949317882E861845C085373F
S113288031F4232D2F7EB22E2AE030E025C0932D83
S1132890997FB92E8F36C1F018F4883579F0B5C018
S11328A0803719F0883721F0B0C0E92FE061BE2EDF
S11328B0B4FE0DC0FB2DF460BF2E09C034FE0AC067
S11328C0292F2660B22E06C028E030E005C020E1A2
S11328D030E002C020E132E0F801B7FE07C06081B9
S11328E07181828193810C5F1F4F06C06081718169
S11328F080E090E00E5F1F4FA3010E949317882E83
S11329008618FB2DFF773F2E36FE0DC0232D2E7F1C
S1132910A22E891458F434FE0BC032FC09C0832D56
S11329208E7EA82E05C0B82CA32C03C0B82C01C0E1
S1132930B92CA4FE0FC0FE01E80DF11D8081803387
S113294021F49A2D997EA92E09C0A2FE06C0B39443
S1132950B39404C08A2D867809F0B394A3FC11C003
S1132960A0FE06C0B21488F4280C922C9B180EC04A
S1132970B21460F4B60180E290E00E945717B39459
S1132980F7CFB21418F42B1802C0982C212CA4FEF3
S113299010C0B60180E390E00E945717A2FE17C052
S11329A0A1FC03C088E790E002C088E590E0B6018E
S11329B00CC08A2D867859F0A1FE02C08BE201C0BA
S11329C080E2A7FC8DE2B60190E00E9457178914BB
S11329D038F4B60180E390E00E9457179A94F7CF39
S11329E08A94F301E80DF11D8081B60190E00E9404
S11329F057178110F5CF222009F442CEB60180E2A8
S1132A0090E00E9457172A94F6CFF60186819781A9
S1132A1002C08FEF9FEF2B96E2E10C940D18A9E012
S1132A20B0E0E5E1F5E10C94F7176A01122FB02E3E
S1132A302BE3201720F0FF24F394F00E02C02CE3C4
S1132A40F22E0F2D27E0AE014F5F5F4F0E946916F3
S1132A50BC014981842F8970813031F0E1FC06C0CA
S1132A60E0FE06C090E205C09DE203C09BE201C007
S1132A7090E05E2D507143FF3CC0911102C083E091
S1132A8001C084E0811718F4212F281B01C020E025
S1132A9051110BC0F601822F30E2882319F03193D3
S1132AA08150FBCFC20ED11C20E0992329F0D6011E
S1132AB09C93F60131966F01C6010396E2FE0AC0AB
S1132AC03EE4D6013C9341E411964C93119712963F
S1132AD03C9306C03EE6F601308341E641833283EF
S1132AE0FC01322F40E2332309F442C041933150B8
S1132AF0FACF42FF44C0911102C083E001C084E0D8
S1132B00811718F4212F281B01C020E051110BC09C
S1132B10F601822F30E2882319F031938150FBCFE4
S1132B20C20ED11C20E0992329F0D6019C93F60112
S1132B3031966F01C6010396E2FE0BC039E4D6015B
S1132B403C933EE411963C93119736E412963C93E1
S1132B5007C039E6F60130833EE6318336E6328338
S1132B60FC01322F40E2332319F041933150FBCF63
S1132B70FC01E20FF11D10828EEF9FEFA6C021E051
S1132B8030E0911102C020E030E0161617061CF464
S1132B90FB01319602C0E1E0F0E02E0F3F1FBB20A5
S1132BA021F0EB2DF0E0319602C0E0E0F0E02E0FD2
S1132BB03F1FE12FF0E02E173F071CF4121B212FBB
S1132BC001C020E08E2D887159F4F601822F30E285
S1132BD0882319F031938150FBCFC20ED11C20E021
S1132BE0992329F0D6019C93F60131966F01511176
S1132BF00BC0F601822F90E3882319F09193815042
S1132C00FBCFC20ED11C20E00F2D060F9A81342F6A
S1132C10307144FF03C0913309F40150101624F4B9
S1132C20093018F008E001C001E0AB0177FF02C0F1
S1132C3040E050E0FB01E41BF50BA1E0B0E0AC0F79
S1132C40BD1FEA0FFB1F8EE2A82E4B01801A9108CC
S1132C500B2D10E01195019511094F3FBFEF5B0754
S1132C6021F4D601AC9211966D01641775072CF00E
S1132C708416950614F4818101C080E34150510902
S1132C803196D60111967D014017510724F0D601E3
S1132C908C936701E2CF6417750739F4963320F4F7
S1132CA0953319F4311101C081E3F6018083F701F2
S1132CB0822F90E2882319F091938150FBCFF70182
S1132CC0E20FF11D108280E090E02996ECE00C9474
S1132CD01318283008F027E03327DA01990F311D43
S1132CE087FD916000966105710539F432602E5FAD
S1132CF03D9330E32A95E1F708959F3F30F0803803
S1132D007105610509F03C5F3C5F3D93913008F02B
S1132D108068911DDF93CF931F930F93FF92EF92DF
S1132D20192F987F9695E92F96959695E90FFF2789
S1132D30EE53FF4F99273327EE24FF24A701E70121
S1132D4005900894079428F4360FE71EF81E491FCF
S1132D50511D660F771F881F991F0694A1F70590D0
S1132D60079428F4E70EF81E491F561FC11D770F5C
S1132D70881F991F661F0694A1F70590079428F4ED
S1132D80F80E491F561FC71FD11D880F991F661FB4
S1132D90771F0694A1F70590079420F4490F561F56
S1132DA0C71FD81F990F661F771F881F0694A9F79E
S1132DB084911095177041F0D695C795579547950E
S1132DC0F794E7941A95C1F7E8E6F0E06894159053
S1132DD0159135916591959105907FE27395E11870
S1132DE0F10A430B560BC90BD009C0F7E10CF11ED5
S1132DF0431F561FC91FD01D7EF4703311F48A95EA
S1132E00E6CFE894015030F0080F0AF400270217C7
S1132E1008F4202F2395022F7A3328F079E37D9349
S1132E202A95E9F710C07D932A9589F6069497951B
S1132E306795379517951794E118F10A430B560BCC
S1132E40C90BD00998F023957E9173957A3308F0D5
S1132E5070E37C932013B8F77E9170617D9330F01A
S1132E60839571E37D9370E32A95E1F71124EF9044
S1132E70FF900F911F91CF91DF91992787FD909536
S1132E800895FC010590615070400110D8F78095B9
S1132E9090958E0F9F1F0895FC0161507040019022
S1132EA00110D8F7809590958E0F9F1F08950F936A
S1132EB01F93CF93DF93FB01238121FD03C08FEF89
S1132EC09FEF2CC022FF16C0468157812481358193
S1132ED04217530744F4A081B1819D012F5F3F4FF6
S1132EE0318320838C93268137812F5F3F4F378333
S1132EF0268314C08B01EC01FB010084F185E02DD5
S1132F000995892BE1F6D80116968D919C91179716
S1132F10019617969C938E931697CE01DF91CF91CD
S1132F201F910F910895FA01AA27283051F12031F9
S1132F3081F1E8946F936E7F6E5F7F4F8F4F9F4F49
S1132F40AF4FB1E03ED0B4E03CD0670F781F891F8B
S1132F509A1FA11D680F791F8A1F911DA11D6A0F59
S1132F60711D811D911DA11D20D009F468943F910C
S1132F702AE0269F11243019305D3193DEF6CF010B
S1132F800895462F4770405D4193B3E00FD0C9F7D1
S1132F90F6CF462F4F70405D4A3318F0495D31FD3E
S1132FA04052419302D0A9F7EACFB4E0A695979591
S1132FB0879577956795BA95C9F700976105710567
S1132FC008959B01AC010A2E0694579547953795B1
S1132FD02795BA95C9F7620F731F841F951FA01D0B
S1132FE008952F923F924F925F926F927F928F92A9
S1132FF09F92AF92BF92CF92DF92EF92FF920F9384
S11330001F93CF93DF93CDB7DEB7CA1BDB0B0FB68D
S1133010F894DEBF0FBECDBF09942A88398848884A
S11330205F846E847D848C849B84AA84B984C884E0
S1133030DF80EE80FD800C811B81AA81B981CE0FD7
S1133040D11D0FB6F894DEBF0FBECDBFED010895BC
S1073050F894FFCF1E
S11330540E00E80318FC05000A0000401454416CF7
S113306461726D2074656D7000416C61726D204FE6
S1133074464600416C61726D2074656D7020616216
S11330846F76650025694300416C61726D20746537
S11330946D702062656C6F77005361766520746986
S11330A46D6500333073656300316D696E00356D91
S11330B4696E0031306D696E0033306D696E0031B4
S11330C46800313073656300202054656D70657247
S11330D461747572650054696D65206D6F64653A39
S11330E420202025697365633B54656D703A25730C
S11330F4433B0A00646174612E74787400446174FF
S113310461206C6F67676572005374617274696ED1
S1133114672E2E2E00496E697469616C697A696E32
S11131246720534400636172642E2E2E000057
S9030000FC
